:020000041000EA
:1000000000B5324B212058609868022188439860DF
:10001000D860186158612E4B002199600221596106
:100020000121F02299502B49196001219960352056
:1000300000F044F80222904214D00621196600F024
:1000400034F8196E01211966002018661A6600F04E
:100050002CF8196E196E196E052000F02FF8012189
:100060000842F9D1002199601B49196000215960AB
:100070001A491B48016001219960EB211966A021F2
:10008000196600F012F800219960164914480160C1
:100090000121996001BC002800D000471248134993
:1000A000086003C880F30888084703B5996A0420EC
:1000B0000142FBD001200142F8D103BD02B5186610
:1000C0001866FFF7F2FF186E186E02BD00000240BE
:1000D000000000180000070000035F00212200005C
:1000E000F4000018222000A00001001008ED00E03C
:1000F00000000000000000000000000074B24E7A12
:1001000000200420F7010010C3010010C5010010F9
:10011000C1010010C1010010C1010010C101001097
:10012000C1010010C1010010C1010010C701001081
:10013000C1010010C1010010C9010010CB01001065
:10014000CD010010CD010010CD010010CD01001037
:10015000CD010010CD010010CD010010CD01001027
:10016000CD010010CD010010CD010010CD01001017
:10017000CD010010CD010010CD010010CD01001007
:10018000CD010010CD010010CD010010CD010010F7
:10019000CD010010CD010010CD010010CD010010E7
:1001A000CD010010CD010010CD010010CD010010D7
:1001B000CD010010CD010010CD010010CD010010C7
:1001C00000BE00BE00BE00BE00BE00BEEFF3058054
:1001D000103800BEF2EB88714C64001068640010A7
:1001E0003402001090A31AE700201F49086006C8D7
:1001F00081F3088810471D48006800282FD10DA4FE
:100200000ECC002902D000F012F8F9E71849194A7B
:10021000002000E001C19142FCD1174988471749ED
:1002200088471749884700BEFDE701C901C29A42C5
:10023000FBD3704768640010C0000020C004002099
:1002400068680010000004200000042068680010A6
:10025000001004200010042000000000704709482E
:1002600004F030FB0047000008ED00E0000000D083
:10027000C0040020DC09002091310010311500106D
:10028000853200105756000006005250ABB3605341
:10029000F863001006005250861C03020064001030
:1002A000060052505422A29D1864001005005250BE
:1002B000DE65F46868680010F8B5C0460448054B70
:1002C00010B5834203D0044B002B00D0984710BDDB
:1002D000C0040020C00400200000000006480749B8
:1002E000091A8B10C90FC91810B5491003D0044B57
:1002F000002B00D0984710BDC0040020C00400208F
:100300000000000010B5074C2378002B09D1FFF73F
:10031000D5FF054B002B02D0044800E000BF0123AD
:10032000237010BDC00700200000000030610010E5
:10033000054B10B5002B03D00449054800E000BF71
:10034000FFF7CCFF10BDC04600000000C40700202E
:1003500030610010F0B5CE4647460E00150080B55E
:10036000694C85B02000694905F0F6FC3000032196
:1003700001F0FEFA2800032101F0FAFA3000002211
:10038000012101F00DFB0E2728000022012100268B
:1003900001F006FB2C236F443A003B70994627215D
:1003A0002B3B2000009605F001FD022002F066F9CB
:1003B000574B0F2598461B786D445A1E9341DB001E
:1003C0002B702A00012327212000009605F0EEFC67
:1003D0004B463A003B7027212B3B2000009605F04E
:1003E000E5FC022002F04AF943461B7827215A1EF9
:1003F0009341DB002B702A0001232000009605F0BA
:10040000D5FC8C233A003B7027218B3B20000096C3
:1004100005F0CCFC022002F031F943461B7827217D
:100420005A1E9341DB002B702A0001232000009606
:1004300005F0BCFC0C233A003B70994627210B3B8E
:100440002000009605F0B2FC022002F017F94346A6
:100450001B7827215A1E9341DB002B702A000123B1
:100460002000009605F0A2FCEC233A003B70272107
:10047000EB3B2000009605F099FC022002F0FEF80C
:1004800043461B7827215A1E9341DB002B702A001C
:1004900001232000009605F089FC4B463A003B7092
:1004A00027210B3B2000009605F080FC022002F083
:1004B000E5F843461B7827215A1E9341DB002B7039
:1004C0002A0001232000009605F070FC6C233A00FE
:1004D0003B7027216B3B2000009605F067FC022053
:1004E00002F0CCF843461B7827215A1E9341DB00CB
:1004F0002B702A0001232000009605F057FC05B060
:10050000C0BCB946B046F0BD88040020801A060081
:10051000C0030020F0B5214A85B0167813886A46DA
:100520001B0A002593730E221D4C6A4401232721C8
:100530002000009505F03AFC022002F09FF8194FC8
:1005400027213B7820005A1E93416A46DB00D37373
:100550000F2201236A44009505F028FC6B460E2209
:100560009E736A44012327212000009505F01EFC9C
:10057000022002F083F83B7827215A1E93416A46F5
:10058000DB00D3730F2201236A442000009505F09D
:100590000DFC022002F072F805B0F0BDC20300208D
:1005A00088040020C0030020F0B5DE4657464E46C2
:1005B0004546E0B587B0002953DD4318039302ABED
:1005C0009C462B4B0E2798462A4B0F269B460D2305
:1005D0009A46002305009946674466440DE00823C7
:1005E00033704B460093320001232721404605F02B
:1005F000DDFB039B0135AB4233D052462B782721DC
:100600001C011B091B0113433B704B461443009311
:100610003A000123404605F0C9FB022002F02EF803
:100620005B461B7827215A1E9341DB0033704B46F3
:10063000320000934046012305F0B8FB4B46E4B27C
:100640003A0027213C7040460093012305F0AEFBA1
:10065000022002F013F85B461B78002BBFD13370E9
:10066000C0E707B0F0BCBB46B246A946A046F0BD05
:1006700088040020C00300200D23F0B50401000908
:1006800085B00001002618431C430E226B461C4D0A
:100690006A449873272101232800009605F086FB01
:1006A000022001F0EBFF174F27213B7828005A1E4C
:1006B00093416A46DB00D3730F2201236A440096FC
:1006C00005F074FB6B460E22E4B26A449C7327214A
:1006D00001232800009605F069FB022001F0CEFFFF
:1006E0003B7827215A1E93416A46DB00D3730F22C1
:1006F0000123280000966A4405F058FB05B0F0BDC0
:1007000088040020C0030020F0B585B06A463D2370
:100710000026937304010E220D201C4D6A442721EC
:100720003C3B04430096280005F040FB022001F00A
:10073000A5FF174F27213B7828005A1E93416A4690
:10074000DB00D3730F2201236A44009605F02EFBD1
:100750006B460E22E4B26A449C73272101232800D1
:10076000009605F023FB022001F088FF3B7827214B
:100770005A1E93416A46DB00D3730F2201232800DF
:1007800000966A4405F012FB05B0F0BD8804002015
:10079000C0030020F0B5002385B0012840D0022816
:1007A00001D1214B1B886A46DEB21B0A00259373D8
:1007B0000E221E4C6A44012327212000009505F0DB
:1007C000F5FA022001F05AFF194F27213B7820004B
:1007D0005A1E93416A46DB00D3730F2201236A44F9
:1007E000009505F0E3FA6B460E229E736A440123DE
:1007F00027212000009505F0D9FA022001F03EFFE4
:100800003B7827215A1E93416A46DB00D3730F229F
:100810000123200000956A4405F0C8FA05B0F0BD38
:10082000044B1B88BFE7C046C60300208804002095
:10083000C0030020C4030020F0B5DE4657464E46F4
:100840004546E0B585B0020004006D4903A803F0F9
:10085000F1FF6B46092C00DD89E05F7B0D239B4691
:100860005B46303FFFB20A263F011F433D236E44E3
:1008700033709A460023634C994632002721009337
:100880002000013305F092FA022001F0F7FE5E4BE2
:100890000B2598461B786D445A1E9341DB002B7044
:1008A0004B462A00272100932000013305F07EFAF1
:1008B0004B46FFB2320027213770200000930133EE
:1008C00005F074FA022001F0D9FE43461B78272177
:1008D0005A1E9341DB002B704B462A0000932000E8
:1008E000013305F063FA6B461F7B5B46303FFFB276
:1008F0003F011F43534633704B463200272100937C
:100900002000013305F052FA022001F0B7FE434601
:100910001B7827215A1E9341DB002B704B462A007F
:1009200000932000013305F041FA4B46FFB232003C
:100930002721377020000093013305F037FA022099
:1009400001F09CFE43461B7827215A1E9341DB0091
:100950002B704B462A0000932000013305F026FA45
:1009600005B0F0BCBB46B246A946A046F0BD1F7B11
:100970000D239B465B46303FFFB20A263F011F43D3
:100980003D236E4433709A4600231E4C9946320034
:10099000272100932000013305F008FA022001F01E
:1009A0006DFE194B0B2598461B786D445A1E9341DA
:1009B000DB002B704B462A002721009320000133D7
:1009C00005F0F4F94B46FFB23200272137702000C2
:1009D0000093013305F0EAF9022001F04FFE43468F
:1009E0001B7827215A1E9341DB002B704B462A00AF
:1009F00000932000013305F0D9F96B465F7B74E763
:100A00003061001088040020C0030020F0B5DE46ED
:100A100057464E4645460400E0B585B003AF020098
:100A2000EF49380003F006FF23000A3B592B00D89A
:100A3000DCE12300E122643B9200934200D20AE110
:100A4000FA239B009C4200DAFEE00D2293465A46B0
:100A50003B780A26303BDBB21B0113430022DBB29A
:100A60009A463D239146DF4C6E4427213370200087
:100A70003C3B0092320005F099F9022001F0FEFDA6
:100A8000D94A0B25137890465A1E93414A466D4425
:100A9000DB002B7027210123009220002A0005F0A3
:100AA00085F9524632704A460123272100922000E0
:100AB000320005F07BF9022001F0E0FD4246137898
:100AC00027215A1E93414A46DB002B702000012348
:100AD00000922A0005F06AF95A467B782721303BBC
:100AE000DBB21B011343DAB292463D234A46337010
:100AF00020003C3B0092320005F058F9022001F042
:100B0000BDFD4246137827215A1E93414A46DB0019
:100B10002B702000012300922A0005F047F952466D
:100B200032704A460123272100922000320005F04E
:100B30003DF9022001F0A2FD4246137827215A1EFA
:100B400093414A46DB002B702000012300922A00CB
:100B500005F02CF95A46BB782721303BDBB21B014C
:100B60001343DAB292463D234A46337020003C3BA1
:100B70000092320005F01AF9022001F07FFD424692
:100B8000137827215A1E93414A46DB002B70200020
:100B9000012300922A0005F009F9524632704A46B4
:100BA0000123272100922000320005F0FFF80220E7
:100BB00001F064FD4246137827215A1E93414A46AC
:100BC000DB002B702000009201232A0005F0EEF8D4
:100BD000FF783D235A4633704B46303FFFB23F010A
:100BE00027211743009332000133200005F0DEF87F
:100BF000022001F043FD43461B7827215A1E9341F2
:100C0000DB002B704B462A0000932000013305F0D7
:100C1000CDF84B46FFB232002721377020000093F9
:100C2000013305F0C3F8022001F028FD43461B788C
:100C300027215A1E9341DB002B704B462A0000935C
:100C40002000013305F0B2F805B0F0BCBB46B24657
:100C5000A946A046F0BD0D2293465A46FB780A26C7
:100C6000303BDBB21B0113430022DBB29A463D232B
:100C700091465C4C6E442721337020003C3B00922F
:100C8000320005F093F8022001F0F8FC564A0B25DB
:100C9000137890465A1E93414A466D44DB002B70F0
:100CA00027210123009220002A0005F07FF85246F8
:100CB00032704A460123272100922000320005F0BD
:100CC00075F8022001F0DAFC4246137827215A1EFB
:100CD00093414A46DB002B702000012300922A003A
:100CE00005F064F85A463B782721303BDBB21B0104
:100CF0001343DAB292463D234A46337020003C3B10
:100D00000092320005F052F8022001F0B7FC424692
:100D1000137827215A1E93414A46DB002B7020008E
:100D2000012300922A0005F041F8524632704A46EB
:100D30000123272100922000320005F037F802201D
:100D400001F09CFC4246137827215A1E93414A46E3
:100D5000DB002B702000012300922A0005F026F80A
:100D60005A467B782721303BDBB21B011343DAB2B2
:100D700092463D234A46337020003C3B00923200AD
:100D800005F014F8022001F079FC4246137827217F
:100D90005A1E93414A46DB002B702000012300922B
:100DA0002A0005F003F8524632704A4601232721F3
:100DB00000922000320004F0F9FF022001F05EFCF6
:100DC0004246137827215A1E93414A46DB002B7076
:100DD0002000009201232A0004F0E8FFBF78F8E623
:100DE0003061001088040020C00300200D229346CB
:100DF0005A46BB780A26303BDBB21B011343002264
:100E0000DBB29A463D2391465B4C6E4427213370FA
:100E100020003C3B0092320004F0C8FF022001F0A9
:100E20002DFC564A0B25137890465A1E93414A468C
:100E30006D44DB002B7027210123009220002A0043
:100E400004F0B4FF524632704A4601232721009233
:100E50002000320004F0AAFF022001F00FFC4246FD
:100E6000137827215A1E93414A46DB002B7020003D
:100E7000012300922A0004F099FF5A46FB782721AB
:100E8000303BDBB21B011343DAB292463D234A46A4
:100E9000337020003C3B0092320004F087FF0220B8
:100EA00001F0ECFB4246137827215A1E93414A4633
:100EB000DB002B702000012300922A0004F076FF53
:100EC000524632704A460123272100922000320008
:100ED00004F06CFF022001F0D1FB42461378272179
:100EE0005A1E93414A46DB002B70200001230092DA
:100EF0002A0004F05BFF5A463B782721303BDBB2E7
:100F00001B011343DAB292463D234A463370200058
:100F10003C3B0092320004F049FF022001F0AEFB9E
:100F20004246137827215A1E93414A46DB002B7014
:100F30002000012300922A0004F038FF524632704C
:100F40004A460123272100922000320004F02EFFA0
:100F5000022001F093FB4246137827215A1E934149
:100F60004A46DB002B702000009201232A0004F087
:100F70001DFF7F782DE6C04688040020C0030020B6
:100F800070B50D00140006000C490D4804F0E4FE95
:100F90000C4B280003211E6000F0EAFC2000032116
:100FA00000F0E6FC28000022012100F0F9FC0022FC
:100FB0000121200000F0F4FC70BDC046801A06003C
:100FC00080040020DC070020012330B50A4D85B0E5
:100FD000009348212800094A04F0E8FE002303ACEE
:100FE0000093220048212800023304F047FF2088A4
:100FF000C0BA05B030BDC046800400202C090020D6
:10100000194B10B51B689A420ED0184B1B689A42B8
:1010100000D010BD00291BD003F08AFFFF2300225F
:101020009B0503F014FFF4E7002906D003F080FFCE
:101030000F4A104B03F00BFFEBE703F079FF0C4A6C
:101040000C4B03F004FF00220B4B03F0E2FEE0E741
:1010500003F06EFFFF2300229B0503F0F8FE002241
:10106000064B03F0D6FED4E780090020D40300200D
:101070009A9999999999C93F0000594000408F4029
:1010800010B50C4B84B01B6803AA137003007F20BB
:101090000B4340421843E0239370002350700C0030
:1010A000009348210333044804F080FE034B1C6086
:1010B00004B010BDD003002080040020B40900203B
:1010C000012330B50A4D85B0009348212800094A14
:1010D00004F06CFE002303AC00932200482128009A
:1010E000023304F0CBFE2078C00905B030BDC04605
:1010F00080040020D0030020F0B504000E0015008D
:10110000154F85B03800154904F026FE144B300009
:101110001C60144B032101341C6000F029FC2800E2
:10112000032100F025FC30000022012100F038FCF2
:1011300028000022012100F033FC6A460A4B60219E
:101140001B683800137300235373009303AA023300
:1011500004F02CFE05B0F0BD80040020801A0600CB
:101160008C0900208809002078090020802300B520
:101170005B0185B0984200DB09480A4B02121B68EC
:10118000001113436A4613730023507360210093C8
:1011900003AA0233044804F009FE05B000BDC046AE
:1011A000FF0F00007809002080040020D0220121D8
:1011B0001206536852685B0A920A10B50B400A4047
:1011C000092817D00A2809D1244C207800282ED1CC
:1011D000002B3BD0002A0CD121700AE00C2808D14A
:1011E00001211F4A1F4813784B40DBB2137004F0F3
:1011F000B7FE10BD1C480478002C0FD1002BF8D18D
:10120000002A28D1154C2378002BF2D00023174A4E
:10121000237003701368013B1360EAE70F4C2178D9
:101220000029E6D0002BE4D1002AE2D1EEE70E48F7
:1012300001780029DDD0002BDBD1002AD9D1227022
:1012400002700A4A136801331360D2E70648037834
:10125000002BF2D1CDE70170CBE7C046D6090020C4
:10126000D3090020D8030020D4090020F007002073
:1012700070B584B0FFF74EF9334B03AD1878FFF724
:10128000FBF9324C2078FFF7F7F9314B1878FFF76C
:101290003BFA304E04213000FFF786F92078FFF743
:1012A000EBF92D4B00211A782C4B0020185EFFF72C
:1012B000A7FE03F085FE041C04F080FA284A294B9F
:1012C00003F09EFD284A009001910421280003F0BC
:1012D000C5FA2649201C04F00DFA002825D02878EC
:1012E0003038C0B2FFF710FA68783038C0B2FFF774
:1012F0000BFA1F480121FFF757F9E8783038C0B2E0
:10130000FFF702FA01211B48FFF74EF90220FFF711
:1013100041FA194B186804F019FAFFF777FB04211A
:101320003000FFF741F904B070BD28783038C0B202
:10133000FFF7EAF901210E48FFF736F9A8783038AF
:10134000C0B2FFF7E1F9DDE7C9030020C8030020C0
:10135000F00700203461001080090020D00900202F
:101360009A9999999999D93F3C61001000002041C0
:101370004061001044610010F407002030B587B0D0
:10138000FFF7C8F83F4B04AD1878FFF775F93E4CEE
:101390002078FFF771F93D4B1878FFF7B5F9042174
:1013A0003B48FFF701F92078FFF766F9280004F0C1
:1013B0002DFEAD796DB22800FFF73EFA03213548C6
:1013C000FFF7F2F80220FFF7E5F9280004F09CF996
:1013D000314B03AD196804F05EF9304904F047F968
:1013E00004F0B4F9FFF712FB03212D48FFF7DCF8F6
:1013F0002078FFF741F92B4B00211A782A4B002067
:10140000185EFFF7FDFD03F0DBFD041C04F0D6F9C8
:10141000264A274B03F0FDFC264A00900191042147
:10142000280003F01BFA2449201C04F063F900286B
:1014300018D028783038C0B2FFF766F968783038AD
:10144000C0B2FFF761F91D480121FFF7ADF8E87858
:101450003038C0B2FFF758F901211948FFF7A4F856
:1014600007B030BD28783038C0B2FFF74DF9012100
:101470001248FFF799F8A8783038C0B2FFF744F95E
:10148000EAE7C046C9030020C8030020F007002097
:101490003461001048610010F40700200000704221
:1014A0004C61001080090020D0090020EC51B81ECA
:1014B00085EBE93F3C6100100000204140610010D5
:1014C00044610010F0B5C646144C00B5144F154EDB
:1014D000154D19E0FFF752FF2B683068984604F06D
:1014E00035F9FA210302181AC90003F01DFA434620
:1014F000584000040D4B000C1860200004F010FE52
:10150000AF20400001F0BAF8200004F0F9FD3B786C
:10151000002BDFD1FFF7ACFEDEE7C04690040020D1
:10152000D3090020F40700200C0005400C100540F2
:10153000F8B5DE4657464E464546674BE0B50122B4
:101540000421092000F06EFA012204210A2000F093
:101550003FFA002201210C2000F022FA012208218A
:101560000C2000F035FA0421002000F001FA0520DB
:1015700001F09CFD04F0C3F8584904F078F8832189
:10158000C90504F088F804F013F90022FE21544B39
:101590001A609A60DA60196158601A601A6801234B
:1015A0009343504A27201360F8390722FEF7D2FEF2
:1015B000052204214820FFF7E3FC052204216020D6
:1015C000FFF79AFD04F0B0FC474804F0C9FC474817
:1015D00004F03AFB464B474E9A46474B474F9846D6
:1015E000474B9B46474B994611E03B68464A93421E
:1015F00001DC01333B60002C23D10020FFF7B6FD56
:10160000C8203C608000FFF7B1FD002333705146D5
:10161000404604F065FD00282FD13378002B16D00A
:101620004B461C6863011B1B9B001B19DB009D4282
:10163000DBDBE0DD3B68002BDDDD013B3B60002CAC
:10164000DBD0C8239B009C4638686044DBE72F4B07
:1016500019782F4B1878FFF713FDFFF731FD00289D
:10166000FBD0FFF7B1FC03F063FC2A4A2A4B03F0DE
:10167000EEFB03F075FC0500D2E7244B1978244BF0
:101680001878FFF7FDFCFFF71BFD0028FBD0FFF7E4
:101690009BFC03F04DFC204B1E4A03F0D8FB03F0EB
:1016A0008FFC5B4618601D4B19781D4B1878FFF7AF
:1016B000E7FCFFF705FD0028FBD0FFF785FC194B81
:1016C00018805B46186804F041F801230500404685
:1016D000337004F025FDA0E7AD110010B08CC24AB4
:1016E0000000054000100540D8030020C51400107C
:1016F00090090020D8090020900400203009002023
:10170000F4070020F0070020FE0F0000D4030020A3
:10171000000900209A99999999990140800900201F
:10172000CC030020D0090020D0231B061B68F0B595
:101730009A00454690464146894ADE4652585746E9
:1017400093465A1E934130224E465B421A40130084
:10175000844AE0B5944683B063440193824B0826E3
:101760009A463500083DEA081300019908339B00AA
:101770005C58002C23D05B46002B2AD001230F2776
:10178000994639002140274213D04B4652464046E5
:10179000AB4012581A420CD1072208002A4092008E
:1017A00090400200EB0871483C339B001A5028001F
:1017B000D84724090135002C01D0B542E1D30836C1
:1017C000282ECED103B0F0BCBB46B246A946A046F7
:1017D000F0BD0F2319002140234207D047460E3B9E
:1017E000AB406148C059184200D18DE02309F11F78
:1017F000002BE4D00F22100018401A420FD0012312
:1018000045468B40584A52591A4208D10722CB0804
:10181000114089008840554A3C339B009850230A68
:10182000B11F002BCBD00F22100018401A420FD04E
:10183000012345468B404C4A52591A4208D107228F
:10184000CB08114089008840484A3C339B0098509F
:10185000230B711F002BB2D00F22100018401A4228
:1018600041D1230C311F002BA9D00F2210001840AA
:101870001A4252D1230DF11E002BA0D00F221000CE
:1018800018401A425AD1230EB11E002B97D00F22B6
:10189000100018401A420FD0012345468B40324AAF
:1018A00052591A4208D10722CB08114089008840BA
:1018B0002E4A3C339B009850240F721E002C00D1FE
:1018C0007DE701235146404693400958194200D014
:1018D00075E70721D3080A40920094403C33234A1D
:1018E0009B009C506BE7012345468B401E4A525992
:1018F0001A42B6D10722CB081140890088401B4A02
:101900003C339B009850ACE707231D40AD00A94035
:10191000164B3C329200D15068E7012345468B407C
:10192000114A52591A42A5D10722CB081140890009
:1019300088400E4A3C339B0098509BE70123454664
:101940008B40094A52591A429DD10722CB081140B7
:1019500089008840054A3C339B00985093E7C04675
:10196000F808002000410140A40900200040014087
:10197000094A830094464022634410B51C68C000A5
:101980006240C02414408022520113431C60034B68
:101990009C466044416010BD04C0014000400140CD
:1019A0000A4B80009C4604236044002901D00C238C
:1019B0000821002A00D10B00026853400C221A4073
:1019C00080235B01184302607047C04604C0014099
:1019D000D0231B061B6830B50500581E83410F48F5
:1019E0005C42844607203023284023408000EC08D6
:1019F000814020000A4D3C3063448000A4004151E6
:101A00001B19002A04D0802292011343196030BDB3
:101A1000C022920113431960F9E7C046004101401A
:101A200000400140F8B51E00D0231B061C680700CB
:101A3000631E9C41302364421C40224B15009C468F
:101A4000C30807201A003840800081403C321E48FD
:101A5000644492009B001150E418002D11D08023A3
:101A60009B011C43D02321601B061C68174FA40058
:101A70003B59002B11D0002E1ED03E51002D16D107
:101A8000F8BDC0239B011C43D02321601B061C68AA
:101A90000E4FA4003B59002BEDD1002EEED00022BA
:101AA0000D200B493E5100F0A9F8002DE8D001218E
:101AB0000D2000F053F8E3E70D20054900F092F9FE
:101AC000DBE7C0460041014000400140F80800202B
:101AD00029170010024B18688007C00F7047C046D6
:101AE00000C0064070B5EFF3108C72B60D4D2B6838
:101AF000002BFCD0BFF35F8F0724CB08C618C05C57
:101B000001230C40A3401C000440034207D10343BF
:101B10003370BFF35F8F2C608CF3108870BD1000A2
:101B200001F0B4FB2C0100D00021044B044ABFF3A8
:101B30005F8F02C39342FAD17047C046000100D0C4
:101B4000800100D0044A1078431CDBB2172B00D967
:101B5000102313707047C046E00300200123834028
:101B6000002904D0034A1360034A13607047034AF4
:101B70001360FBE780E200E000E100E080E100E0CC
:101B800001228240034B1B6813405A1E9341D8B276
:101B90007047C04600E100E0024B10309B688000B7
:101BA000C058704700ED00E070B50D00EFF31086EF
:101BB00072B60F4A1368002BFCD0BFF35F8F0D4B3A
:101BC00010309B6884001B590B4A934203D09D42FE
:101BD00001D001F073FB074B9B681D51BFF35F8F72
:101BE000BFF35F8F0022024B1A6086F3108870BD2E
:101BF000240100D000ED00E0CD010010F0B5574603
:101C00004E46DE464546E0B585B006000291170017
:101C1000EFF3108B72B6674A1368002BFCD0BFF34A
:101C20005F8F0025644B5D579A46002D00DAA4E0D3
:101C30006B00624C03935B199B009846A146C1441C
:101C40004B4652469B79103613705D4BB2009B6831
:101C5000019299580B1B2F2B34D95A4B994200D023
:101C6000A4E0039B584A9C46584B6544AD0063531F
:101C7000434602336519E418554B0121043B1B1BF5
:101C80001B055B0D13436B80524BEF71AB80FF2341
:101C9000AB71029BAB604B460B431900484B019A5A
:101CA0009B689950BFF35F8FBFF35F8F0022414B5A
:101CB0001A608BF3108805B0F0BCBB46B246A9464B
:101CC000A046F0BD01200A008243D379BB422FD841
:101CD00045464E46130040491B1B5B415943090DC5
:101CE0003A4B63533A4B02356519043B5B1B1B05AA
:101CF000354D5B0D2B4373800426B446E0444444C9
:101D0000131F1B1B4C46A17102991B05A16049467C
:101D10005B0D2B43A380314BE77101431360BDE79B
:101D20005800C01880002018C679BE422BD9020086
:101D30000623D356002BF3DA101D8246284880462E
:101D400004267642B446E14450464E46361A3005E3
:101D5000400D824656461C48957106439680039A6C
:101D6000944665441D4AAD00641922604246A37141
:101D7000029BA280E771A36090E701F09FFA002523
:101D800053465D5754E7101D824690884005001564
:101D900084464046D444664604302018301AE02673
:101DA0000005400D360230438046C9E701F086FA4F
:101DB00057E7C046240100D0D7090020E4030020E3
:101DC00000ED00E0CD01001000E0FFFF00A1FFFFEB
:101DD0001404002001BDFFFFAAAA000001488047AB
:101DE00001BD0000F0B5DE4657464E464546E0B51B
:101DF0000C0083B0EFF3108972B6584A1368002BB9
:101E0000FCD0BFF35F8F564B9A68030010339F00DE
:101E1000D559544A9046954232D0A54243D0524EAD
:101E2000AA1B2F2A2CD801228240924651464F4AA3
:101E300012681140019151464D4A1160BFF35F8F06
:101E4000EFF305829346002A33D101232A009A43F7
:101E500093689C4208D177E04B005B189B00F31815
:101E60009968A1422AD01A00062151560029F3DAB6
:101E7000019B002B19D052463E4B1A603B4B1A6017
:101E8000374B9B68DD51BFF35F8FBFF35F8F00223D
:101E9000324B1A6089F3108803B0F0BCBB46B246DF
:101EA000A946A046F0BD1500EAE75246304B1A603D
:101EB000E6E79342C9D001F001FAC6E70621595678
:101EC000002921DB4A005018800034188046A068A1
:101ED0009860E079D871062020569871002824DB9C
:101EE000A488F01A6405241544440019E024000570
:101EF000400D24022043988052181F4B9200B618C0
:101F00001A781970B271B3E7594600290FD1FF3121
:101F100091711A49918018490A789A71184A9B1B45
:101F20005B415A43120D0A70A2E71648E3E7164ACE
:101F30001649D21A083A5002400D014399801449BB
:101F400052080A43DA8093E706215156130000290C
:101F5000B8DA5A46002AEAD14546DCE7240100D027
:101F600000ED00E0CD010010E403002000E100E0FE
:101F700080E100E080E200E0D709002001BDFFFF22
:101F8000AAAA000001BD00001E04002000F0FFFF0F
:101F900000F8FFFF70B5EFF3058101240443EFF370
:101FA000108C72B6214A1368002BFCD0BFF35F8FF0
:101FB0001F4B05001F4AED1A6D416A43120D1E4D5D
:101FC0008900AE6852B27658A6421CD006215956F6
:101FD00091421CD012215956914222D01E215956AD
:101FE000914220D02A2159560324914210D0134BFC
:101FF00019781A708171BFF35F8F00220B4B1A6042
:102000008CF3108870BDAB680D4C5C50EFE700247A
:102010006100091989005B18FF21997109499980AC
:10202000E5E70124F4E70224F2E7C046240100D0EA
:10203000E4030020AAAA000000ED00E0D709002078
:10204000CD01001001BDFFFF054B064A1360064A93
:10205000136053609360D360136153619361704761
:102060008080808000E400E004E400E0024B9C46B5
:1020700061448900016070474000003410B50400DD
:10208000FFF760FD01002000FFF7F0FFFF23237141
:10209000BFF35F8F10BDC04610B50400FFF752FDBF
:1020A00001002000FFF7E2FFFF23A380BFF35F8F53
:1020B00010BDC04683680B4810B584466144624435
:1020C000090112019A18591854684B6801209C4262
:1020D00001D802D00020C0B210BD12680B689A422D
:1020E000F9D8F7E7FFFFFF0F0A4B1968EFF31080ED
:1020F00072B60A68002AFCD0BFF35F8F1B68BFF37B
:102100005F8F00221A6080F3108840BF00200021FA
:102110007047C046BC090020F8B557464E464546B4
:10212000DE46E0B599460CAB1C780DAB1B7806007B
:1021300090469A460768002C11D1BC7B002C42D0F7
:1021400065003B682D19033D59194B78BB73002B73
:1021500000D1FB7300238B704B700B7004E06500A3
:102160003B682D19033D5919B2682A4B94464246E3
:10217000E3181B0163441A604A465A600A9A9A603F
:102180000B9ADA6000238B704B700B707B7B9B4645
:10219000002B2BD022005946B8687B6898473A68D4
:1021A000002816D05B4658465B005B445519033B3C
:1021B000A870D118D35C002B00D06B705B460C70FC
:1021C0007B73A34513D0F0BCBB46B246A946A046DC
:1021D000F8BD5B465B005B44033BD3189C70511910
:1021E000525D002A00D05A705B460B707C734246E9
:1021F0004B46307D00F090FB051E06D05346002B69
:1022000003D12100306800F0ABFD0E9B002BDAD02B
:102210001D70D8E7FFFFFF0FF0B5DE4657464E466C
:1022200045460023E0B58BB00893674B8200D45835
:1022300000239B46099000F00FFB626806000F0028
:10224000EFF3108572B61368002BFCD0BFF35F8FDD
:1022500023689C465B7B9946002B00D169E0A2680D
:102260005A4B90464B441B01984443461A685B689E
:1022700010001900801BB941002900DC63E00998B7
:1022800000F04AFB002300229846002306920793A1
:1022900000239A466368BFF35F8F5A461A6085F33E
:1022A00010885346002B08D10028C4D10BB0F0BCD5
:1022B000BB46B246A946A046F0BD089B414618025F
:1022C0004B461843D047626806000F00EFF31085B5
:1022D00072B61368002BFCD0BFF35F8F002F50DB6A
:1022E00033003B4302D02369002B61D12368D97BA3
:1022F000002907D04A00521819688C4649466244A2
:10230000033A51709A7B002A01D14A469A734A4691
:10231000DA734B46E168013BCA5C0132CA545B4642
:1023200023616368BFF35F8F5A461A6085F3108894
:1023300081E700230022984600230692079300239A
:1023400000209A46A6E7002902D1002800D096E78F
:102350000021604600F082FC43461A685B680692E2
:10236000079343469B689A464346DB689846E36872
:102370004B44013B1B7808931B020343236100205D
:1023800088E72369002BB1D0069A079B921BBB41BB
:10239000002B15DB59460491012103914946029116
:1023A00041460191514620000091FFF7B5FEB6E786
:1023B00000F052FA32003B0012184B41002BE9DAD0
:1023C0000122034B5242E5E794090020FFFFFF0F73
:1023D000FFFFFF7F10B5144C6368002B04D00A2167
:1023E0001248FFF743FE10BD2300114A1021206858
:1023F00000F04EFB032000F023FA032000F0F6FA71
:1024000003200C4900F042FAFFF79CFB0A4B9C4664
:1024100003232375D0231B061B6860446375074B99
:1024200080006060DC60DAE72C040020BC0900203A
:10243000B52000101922001040000034940900203B
:10244000F0B54E464546DE465746E0B585B00193A9
:1024500010AB1B7806000393002399469846009220
:102460007268EFF3108B72B61368002BFCD0BFF3C9
:102470005F8F3568AC7B002C3DD067002B683F191F
:10248000033FDB195A78AA73002A00D1EA73B168B6
:10249000474A8C4600980199A218120162441060C4
:1024A00051600E9991600F99D16042469A705A70AE
:1024B0001A706B7B9A46002B67D022001900A8681F
:1024C0006B6898472A68002852D0534650465B00F4
:1024D0005344D719033BB870D118D35C002B00D0FC
:1024E0007B7053460C706B7354454FD0F3681B19C7
:1024F000013B187800E000207368BFF35F8F42460D
:102500001A608BF31088002C4FD04B46002B08D15B
:102510000002204305B0F0BCBB46B246A946A04627
:10252000F0BD039B002B3ED00E9B00200F999847D7
:10253000030004000D000B4335D000290ADA009A8D
:10254000019B121BAB4100920193002B0ADB039B02
:10255000994685E700F080F924184D4100940195D3
:10256000002DF4DA0123134C5B4200930194EEE753
:1025700053465B005344033BD3189C70D119D25D82
:10258000002A00D05A7053460B706C73307D009A4D
:10259000019B00F0C1F981460028A7D021003068D6
:1025A00000F0DEFBA2E70020B4E701204042B1E7E3
:1025B000FFFFFF0FFFFFFF7FF0B504000D000626B1
:1025C0007642F717C64636196F4100B584B08F4280
:1025D00014D811D000F040F932003B00121A8B41A0
:1025E000002B15DC002B3ED02000290000F03EF926
:1025F00004B080BCB846F0BD8642EBD90026002767
:1026000000F02AF932003B00121A8B41002BE9DD61
:10261000002302930193154B3200009314483B00B2
:10262000FFF70EFF0028DFDB00239846BC46114A67
:10263000114F7B6A9C4504D8B96A8E42D4D99C4517
:10264000D2D11168EFF3108072B60B68002BFCD06A
:10265000BFF35F8F1368BFF35F8F4146196080F34C
:10266000108820BFE5E7002ABED0D1E7E92000109E
:102670002C040020BC0900200040054070B5060075
:1026800000F0EAF8FA2204000D00002330000021D7
:10269000920002F0C9FF00196941002902DBFFF72F
:1026A0008BFF70BD012001494042F8E7FFFFFF7F2B
:1026B000F0B5EFF30583CE46474680B505000C0024
:1026C00085B0002B12D02C4A0020536A9C4203D8BC
:1026D000926A0130AA4204D305B0C0BCB946B046E4
:1026E000F0BDE01A421E9041C0B2F5E7234E0293BE
:1026F0000193234B0200009330000B00FFF7A0FE74
:10270000031EE0DD20BF7168EFF3108772B60A6820
:10271000002AFCD0BFF35F8FDAB294463068427B68
:1027200062451DD0FF221A4051008946016891443C
:1027300088464946414403398978002913D0F16815
:102740001B0A88464244013A1278DBB29A420FD003
:102750007368BFF35F8F00221A6087F31088B2E7B7
:10276000FF221A40EBE732699342F1D13161EFE782
:10277000614600F0F5FAEBE7004005402C0400202C
:10278000E9200010F0B5EFF30582D6464F464646E5
:102790001000C0B51038EFF3108872B6214C2368D2
:1027A000002BFCD0BFF35F8F0123190081401E4D29
:1027B0001F006963AA461D4D29601D4D2E78AC4649
:1027C0003500C5402F402B4209D1BFF35F8F2760F2
:1027D00088F31088E0BCBA46B146A846F0BD53461F
:1027E000144D5F6A83005D59AF420ED3124A8E4387
:1027F0009B5862461670BFF35F8F0022226088F3F9
:102800001088002BE6D09847E4E70C4B92009C46DA
:10281000624413681360BFF35F8F0023236088F363
:102820001088D7E7280100D0004005403C700540E3
:10283000D9090020C0090020E0070020D03F054052
:1028400010B50100024A0348FFF74CF910BDC0461D
:1028500050610010D5090020034B596A0A00986A9C
:10286000596A8A42FAD1704700400540064A536AC5
:102870009942FCD807D1044B02E05A6A914202D136
:102880009A6A8242F9D370470040054070B504004F
:102890000D00EFF3108672B61A4A1368002BFCD0B5
:1028A000BFF35F8F002D1BD02000FFF775F916498D
:1028B00081420AD02000FFF777F901212000FFF7BD
:1028C0004DF90123A340114A1360114BA400E550B8
:1028D000BFF35F8F00220B4B1A6086F3108870BD28
:1028E0000B4BA200D5500122A2400A4920000B78D0
:1028F00093430B700449FFF775FA00212000FFF79E
:102900002DF9E5E7280100D0852700103860054043
:10291000E0070020D9090020F0B54F46D6464646CC
:10292000C0B507002C4C616A0D00A66A616AA94215
:10293000FAD18B4208D805D00120E0BCBA46B14696
:10294000A846F0BDB242F7D9EFF3108A72B6234819
:1029500001680029FCD0BFF35F8F0125BD402049ED
:102960001D4C8846097889462943C9B28C464146A0
:1029700060460870391D1B48890065630A51B9001B
:102980000B50216A0020294219D0616A0800A66A0A
:10299000616A8142FAD18B4219D801D1B24216D86C
:1029A000CC4516D00C4B1F201D625D6301230740F0
:1029B000BB400D4A1E38136043464A461A70BFF3A7
:1029C0005F8F0022054B1A608AF31088B5E700205C
:1029D000F5E70120F3E7C04600400540280100D09C
:1029E000D9090020C009002080E200E0EFF3108C3C
:1029F00072B60A490B68002BFCD0BFF35F8F01232E
:102A00008340074A0748136202789A430270BFF373
:102A10005F8F00230B608CF310887047280100D073
:102A200000400540D909002070B5050014001600CB
:102A3000002915D00C00002A12D080686B689847D6
:102A4000296800280ED073009B196200033B1219FD
:102A5000CB18033A9C7088188A5C002A15D106703E
:102A6000200070BD63001B197200033B9219CB1844
:102A7000033A9E7088188A5C002A02D104703400E0
:102A8000EEE75A7004703400EAE75A700670E7E720
:102A900030B583600023CCB24373013304734260CA
:102AA0008373C4730D000068012C06D9421C0133E6
:102AB000DBB2137003329C42F9D1FF2129404B0055
:102AC0005918002340180338437030BDF8B5CE467E
:102AD000474606000C0080B5002907D04D0003686A
:102AE0006D18033D5A195778002F04D12000C0BC3F
:102AF000B946B046F8BD7900C91903398846434440
:102B00005978894600215970517073683A00210044
:102B1000806898473368002814D042469A18947009
:102B200059195B5D002B00D053700F702700494688
:102B30003000FFF7CBFF390002003000FFF774FFD1
:102B40000400D3E7424641465D19AF709A185B5CBA
:102B5000002B00D06B701470E9E7C046F0B5574603
:102B60004546DE464E46E0B50D006B0001685B1938
:102B7000DF1E0400C85D83B00192CA19002850D03E
:102B800043001B18033BCB185E78B446002E1AD1C5
:102B9000019E002E42D0E67B002E04D073009B19CC
:102BA000CB18033B5D70A37B002B00D1A573E573AD
:102BB00000282FD10023537003B0F0BCBB46B246AF
:102BC000A946A046F0BD72006244033A89184A78CB
:102BD000904600224A7091465A700100320020004F
:102BE000FFF722FF43468246002B07D05B00216897
:102BF0004344033BCB185A78002A16D1424651462B
:102C00002000FFF711FF2168019BCA19002BC2D1D8
:102C10000028CFD043001B18033BCB18002199702C
:102C2000C8E7019B002BB6D1C4E7500080180338D9
:102C30000918487883464846487058704146200035
:102C4000FFF7F2FE594680462000FFF73FFF41465E
:102C500002002000FFF7E8FE8046CFE7F0B55746B8
:102C60004546DE464E46E0B583B00191457B040003
:102C70006B0000685B19DF1EC15DC219002952D0CC
:102C80004B005B18033BC3185E78B446002E1CD182
:102C9000019E002E44D0E67B002E04D073009B19C9
:102CA000C318033B5D70A37B002B00D1A573E573B4
:102CB000002931D1002328005370617303B0F0BCA8
:102CC000BB46B246A946A046F0BD72006244033A34
:102CD0008018427890460022427091465A70200037
:102CE0003200FFF7A1FE43468246002B07D05B006F
:102CF00021684344033BCB185A78002A17D1424637
:102D000051462000FFF790FE019B01002068C21988
:102D1000002BC0D10029CDD04B005B18033BC3185A
:102D200000209870C6E7019B002BB4D1C2E7500089
:102D30008018033809184878834648464870587008
:102D400041462000FFF770FE594680462000FFF7FD
:102D5000BDFE414602002000FFF766FE8046CEE73A
:102D600070B5040000292CD0437B8B422ED005681F
:102D700048004018033828188278002A21D05300D0
:102D80009B18033BEA5CEE188A4202D11BE0002A42
:102D900008D053009B18033BEB185A788A42F6D1AF
:102DA00042785A7000230122837043702000FFF79D
:102DB000D5FE617B02002000FFF736FE6073012024
:102DC00000E0002070BD43783370EBE7012219006A
:102DD000FFF7C4FE60730120F4E7C04630B50C2055
:102DE00083B000F0B9F9FEF775FE00280ED0994BBC
:102DF000994A1A605A609A60DA601A615A619A6157
:102E0000DA611A62954A5A6203B030BD944CA067E9
:102E100000F0AAF90122934B1A60636C012BFCD1DC
:102E20000322914B1A608E4A936B012BFCD1013324
:102E300001218E4A8E480093043300F03DF90523AA
:102E40008C4A009301218C4800F036F98B4B5A686C
:102E5000FF2A02D8802252005A6080227D4C824B89
:102E600021691201854D1A60002907D0606901F0BF
:102E700083FD431C5800C0180338FDD2E0217F4B6E
:102E800002201A681140802252012A4311601968F9
:102E9000484003210140116004219A681142FCD08E
:102EA0008022802192012A43090111608022520070
:102EB0005A60734B2361734B5968FF2900D85A60DD
:102EC0000321684A6F4B116002399A681142FCD0A5
:102ED000E0201A681040802252011A4310601868DE
:102EE0004840032101400220116066498A6810426F
:102EF000FCD0802292011343802212011A608022AA
:102F0000614B52004A606361604B5968FF2900D8E9
:102F10005A6080225E4BE16912015C4D1A60002903
:102F200007D0606901F028FD431C5800C018033821
:102F3000FDD2E02255490B681A4080235B012B43E8
:102F40001A60802380229B012B4312011A60802289
:102F5000414B52004A60E3614E4B5968FF2900D84B
:102F60005A6080224C4B216A12014A4D1A60002996
:102F700007D0606901F000FD431C5800C0180338F9
:102F8000FDD2E02243490B681A4080235B012B43AA
:102F90001A60802380229B012B4312011A60802338
:102FA00080225B004B602C4BD20223623B4B596862
:102FB000914200D25A608022394B616A1201374D2A
:102FC0001A60002907D0606901F0D6FC431C580044
:102FD000C0180338FDD2E02230490B681A40802324
:102FE0005B012B431A60802380229B012B4312013B
:102FF0001A608023DB024B60184B6362294B5A68CE
:10300000FF2A02D8802252005A608022264BA169F2
:103010001201244D1A60002907D0606901F0ACFC50
:10302000431C5800C0180338FDD2E0221D490B682C
:103030001A4080235B012B431A60802380229B016E
:103040002B4312011A6080235B004B600E4BA3617F
:10305000DAE6C04604090020006CDC021BB7000061
:10306000008000403CB0004030B00040002F685964
:1030700000800240008C864700C002403080004043
:10308000001BB7003C80004040597307548000404B
:1030900054B000406080004060B000406C80004050
:1030A0006CB000404880004048B00040014B8000B8
:1030B000C058704704090020F8B5040021481D00DD
:1030C00017000E0001F058FC0100380001F054FC1C
:1030D000069B29041B0319432368002B20DB1A4B92
:1030E0001A4DE21853425A4180235B019C46120359
:1030F000174B62441A60174B1A601700AB689F4366
:10310000FBD1C022231D92011A4321232660A06017
:1031100013602368002BFCDA0823E1601360F8BD1C
:103120003F2322681340B342D9D1A3681B051B0D6E
:103130008342D4D1EE22E368D20213408B42CED137
:10314000EDE7C046001BB7000040FDBF00C00040D7
:1031500000E0004000F000408023024A9B0003434F
:10316000D362704700800540AA23064A1B01136002
:103170002F230549D360054B19605368002BFCDAF7
:103180007047C0460040024000B0FA0000600240B4
:103190002C4B2D4A70B51A602C4A2D4B2D491A60C4
:1031A00014008B689C43FBD12B4D2C4EB54208D2AA
:1031B000013E761BB60808CD984723000134B34280
:1031C000F9D1FFF70BFE264A214B1A60214A93687A
:1031D000DB43DB01DD09002BF9D14022214B224CDE
:1031E000224E9A675A671A67DA66B44208D2236891
:1031F0002000002B20D00834FEF74EFFB442F6D357
:103200001B4E1C4CC022A168300002F05BFBA66084
:10321000FEF78AFCFEF718FFFFF7DCF8164C174E96
:10322000B44208D2013E361BB60808CC98472B00A2
:1032300001359E42F9D170BD0834FEF71FFFB4423C
:10324000D5D3DDE700E00040BFCDFBFEFE7F3C00B4
:1032500000F0004000C00040A8040020B804002096
:10326000FFFFFF0100F0014090040020A8040020AF
:103270000000002000ED00E0B8040020C0040020A1
:1032800000BEFDE710B5FFF7FBFFC0460FB400B569
:10329000084883B002F048FC049B002B07D005A926
:1032A0001800019101F0EEFA034802F03DFC012004
:1032B000FFF7E6FF746100108461001010B501484B
:1032C000FFF7E4FF886100109A4200D288547047EB
:1032D0007047C046F8B557464E464546DE46E0B50F
:1032E00099460A9B07009A460D9B8846934615000F
:1032F0000B9E9B0710D10C9B9E420DD29D1B140070
:103300000E005D4422004B46013431002020B847B6
:10331000A542F7D1B0460B9E002E27D04446751922
:103320005346AA1B013E985D21004B46B847002E2C
:10333000F6D123002C0098460D9B9B070FD55B46CA
:10334000E51A0C9BAB420AD94646984622004B46EA
:10335000310020200135B8470134A845F6D82000B7
:10336000F0BCBB46B246A946A046F8BD2C00E3E738
:10337000F0B54F464646D646C0B584B098460EAB2B
:103380001B78129F994694460D9C109B119EBA077C
:1033900025D4002E4BD19C4200D3BFE001223A40FD
:1033A00092461F2C00D9B8E00C9A551E302201E03D
:1033B000202C03D001342A55A342F9D85246002AC2
:1033C0000DD0A6420BD9202C44D00C9A551E302289
:1033D00001E0202C3ED001342A55B442F9D1FA063E
:1033E0004DD57A053FD4002C39D10F9B102B00D13D
:1033F00079E00F9B022B00D18AE030230C9A012444
:1034000013704B46002B3FD02D230C9A13550134DB
:103410000C9B624600930397434602960194FFF784
:1034200059FF04B0E0BCBA46B146A846F0BD01223F
:1034300015003D40AA463A422FD04A46002A02D102
:103440000C323A4200D0013E9C42BAD21F2CABD97A
:10345000202E27D92024FA06DAD57A0503D4A342F0
:103460002DD0A6422BD00F9B102B32D0022B20D078
:10347000202CCDD030220C9B1B191A700134202C2B
:10348000C6D04B46002BBFD17B070DD43B07BFD521
:1034900020230C9A13550134BAE79C429FD21F2C6B
:1034A00000D881E720249AE72B230C9A1355013486
:1034B000AEE7202CACD00C9B1B1901343AE0631E04
:1034C000012C92D00F9A102A2AD0022A2FD01C0049
:1034D000D0E7BB060ED4202C9AD00C9B1A190134CD
:1034E00078231370C4E7BB060DD478230C9A01240B
:1034F0001370BFE7202C00D18AE758220C9B1B19C0
:103500001A700134B4E758230C9A01241370B1E700
:103510000C9A603301241370ACE7202400265EE788
:10352000023CBA06E9D40C9A12191C00D8E70C9A8E
:103530009246534462221A709AE7C04610B500289A
:1035400000D110BD02F0A4FAFBE7C046F0B5DE469C
:1035500057464E464546E0B59BB09B46249B894660
:103560009846259B0B900C924046424619009A467D
:1035700001F0CBFC002800D0D8E0012240465146A3
:10358000774B524201F0BCFC002800D0CEE0012273
:1035900040465146734B524201F09CFC002800D03B
:1035A000C4E0002200234046514601F093FC00286D
:1035B00000D0B9E1424653460A9209938023289AE3
:1035C000DB001A400E92289A1A4201D10623269354
:1035D0000A9A099B1600134300D0C7E0289B0025D8
:1035E00000261B0500D49BE100230D93269A0D9B1A
:1035F0009A4200DC9FE1D01A431E26938023289A2A
:10360000DB001A430023002728920D93279B0024F8
:10361000BB4200D9DC1B0223289A1A400E92289A3A
:10362000134203D07B427B415B421C400D9B002B2D
:1036300007D00A9809992A00330001F0EAFB0A90A2
:103640000991002200234046514601F043FC002826
:1036500005D0802000068446099961440991289A82
:10366000414B0B9D13400493269B0A9A0293099B9E
:1036700003940092019349465B4628000C9A00F09F
:103680008BF90400002F62D0289B220098061F238C
:10369000C0179843631C984649465B466530A84767
:1036A0000D9B0025DA179C18DB0F9A465440013F0A
:1036B00001E0202D13D00AAA94461F232000634462
:1036C0000A2101355E1901F057F9303131702000BF
:1036D0000A2101F051F926000400092EE9D805233A
:1036E0000693002304930A330393534605970B9FD5
:1036F000029312AB009342465B464946380001955F
:10370000FFF736FE0E9B0400002B20D00C9BC51A41
:10371000279BAB421BD91E0022005B464946202056
:103720000135B8470134AE42F6D810E0289B424636
:103730000493279B49460393269B0B980293534679
:10374000009201935B460C9A00F026F904002000D9
:103750001BB0F0BCBB46B246A946A046F0BDC04671
:10376000FFFFEF7FFFFFEFFFFFF7FFFF734B099FA7
:103770009C467800400D604401F0DAFB704A714BC2
:1037800001F065FB704A714B01F03AFB3B03704A54
:103790001B0B1A4304000D00300011006D4B00227A
:1037A00001F025FB6C4A6D4B01F051FB02000B0050
:1037B0002000290001F024FB01F0D2FB0D9001F064
:1037C000B7FB674A674B04000D0001F040FB002285
:1037D000654B01F015FB01F0C3FB644A0600644B26
:1037E0002000290001F033FB040030000D000F968B
:1037F00001F09EFB5F4A604B01F029FB02000B00C9
:103800002000290001F0F3FA02000B0006000F006F
:1038100001F01DFB320004000D003B0030003900B8
:1038200001F0EEFA002210901191544B2000290073
:1038300001F0EFFA0022524B01F0E2FA02000B0015
:103840002000290001F0E5FA00224E4B01F0D8FAE1
:1038500002000B002000290001F0DBFA0D0080219E
:10386000040032003B000020C90501F0C0FA02004C
:103870000B002000290001F0C3FA02000B00109891
:10388000119901F0C6FA0022314B01F0B9FA3E4B12
:103890000F9C9C4664440022230501F0D8FA0500E1
:1038A0000E0002000B000A98099901F013FB002892
:1038B0000AD00D9B2800013B31000D930022304BB4
:1038C00001F0A7FA05000E00C6270D992B00633101
:1038D0008F42BF4128997F420437090500D495E6FD
:1038E000334300D182E6099C284A2100284B0A98DC
:1038F00001F0FEFA002808D000222100254B0A988A
:1039000001F0E8FA002800D070E6269B002B00D1D9
:103910007CE60E9B5A1E9341269AD31A269375E68F
:10392000002304270D9371E643460A9380231B0668
:103930005344099342E6002326935FE601FCFFFF10
:10394000FB799F501344D33FB3C8608B288AC63F8E
:103950000000F03F0000F83F61436F63A787D23F4C
:1039600071A379094F930A400000E03F1655B5BB9B
:10397000B16B0240EF39FAFE422EE63F00002C40C8
:103980000000244000001840FF0300002D431CEB02
:10399000E2361A3F80842E41F0B54E46DE46574649
:1039A0004546E0B597B09946209E219F229B8346CD
:1039B000984607910C923B0032003000390001F02C
:1039C000A4FA002800D0A9E1012230003900CA4B36
:1039D000524201F07FFA002800D0E1E001223000DD
:1039E0003900C64B524201F08BFA002800D0B7E0F4
:1039F000002230003900C24B01F082FA002800D0CA
:103A000099E0002230003900BE4B01F063FA002833
:103A100000D090E0002200233000390001F05AFA73
:103A2000002800D0B1E000230D93249B5B0501D456
:103A30000623984608AB9C461722002430234146B3
:103A4000624404E0013413550139202C01D00929C6
:103A5000F8D888463000390001F082FA4346DA008F
:103A6000A94B05009B181A685B680892099301F03E
:103A70005FFA02000B003000390001F0B8F9089A33
:103A8000099B01F0E4F90A900B9101F08DFA82464E
:103A900001F04AFA02000B000A980B9901F0A7F90D
:103AA00000229A4B0A900B9101F02AFA002800D1CB
:103AB000C0E001239C46E244504601F035FA020082
:103AC0000B000898099901F00BFA002802D0002396
:103AD0009A4601354346002B6AD008AB17269C4610
:103AE00008956644554614E001235B4243440A218D
:103AF00028009A4600F040FF013430313719397000
:103B000028000A2100F038FF092D00D8D0E0D04667
:103B10000500202CE8D10EAB98460323249A1340CD
:103B2000012B00D196E02023249A01930392239A3B
:103B3000434602921EE0249B58460493239B009622
:103B40000197039343460C9A029307994B46FFF75C
:103B5000FDFC17B0F0BCBB46B246A946A046F0BD7E
:103B6000249B5B070ED40322694B24990192039195
:103B700023990291009358464B460C9A0799FFF7F8
:103B8000A9FBE6E70422634BEFE73B00320000208D
:103B9000002101F02CF9012306000F000D9344E7EA
:103BA000249B0393239B0293042301935A4BE1E745
:103BB000280001F0BDF902000B003000390001F0CF
:103BC00016F9524B002206000F0001F083F90EABEC
:103BD000984600280AD10022300039004B4B01F0F2
:103BE0008FF9002802D1EB0700D50135202C94D0A5
:103BF00008AA94461723280063440A2101341E1999
:103C000000F092FE3031280031700A2100F08CFE65
:103C1000051EEBD10323249A1340012B1BD0202C2B
:103C200000D180E70D9B002B35D02D224146631C2F
:103C30000A5579E700220A980B99344B01F04AF9AA
:103C4000002800D046E75346002B51D101239C4663
:103C5000E2443FE72024239B002BE0D00D9B002B68
:103C600003D1249A0C33134202D0239B013B2393AC
:103C7000239BA342D3D908AB9C461722302362442E
:103C8000202C00D14FE72399013413558C42C6D024
:103C9000202CF8D147E7249B5B0724D4249A2300E7
:103CA000120700D440E72022414601330A553BE782
:103CB0005746089D202C00D12DE722003021404698
:103CC000002F09D00132B154202A00D123E7D34379
:103CD0001B191B18002BF5D10EAB98462E2341461D
:103CE000541C8B5482E72B224146631C0A551BE768
:103CF000DB0700D4EEE6A9E7FFFFEFFFFFFFEF7F52
:103D000065CDCD4165CDCDC1906300100000E03F91
:103D10009461001098610010A4610010249B03932B
:103D2000239B029303230193004B23E7A061001020
:103D3000F0B5DE464E4657464546E0B59FB01C00FE
:103D4000289B91460993C94AC94B8B4608901A6033
:103D5000002900D118E2002320789A46002800D1DB
:103D60001AE226001D005C460AE02A006F1C4B4642
:103D7000089D2100A8473D0001363078002870D00A
:103D80002528F2D110239B46083B9A46043B9846CF
:103D9000023B00219C46721C107816000300203B59
:103DA000DBB2102B03D8B34F9B00FB589F46030098
:103DB000303B092B32D900230A932A2868D00023EC
:103DC00098462E283ED00300683BDBB2122B1CD84D
:103DD000A94A9B00D3589F46012301321943DBE7D0
:103DE000634601321943D7E7434601321943D3E70B
:103DF0005B4601321943CFE7534601321943CBE703
:103E000080235B007078194301360300253BDBB249
:103E1000532BAAD8994A9B00D3589F4600270300EA
:103E2000B800C01901364000C018337830381A0085
:103E3000303A0700092AF3D90A901800002398465F
:103E40002E28C0D180237078DB0019430300303B5B
:103E5000721C092B00D8A1E12A2800D1B2E116007A
:103E6000B1E7A346AA462C00D14503D801235B4203
:103E70004B449A464B46524659460020089DA84757
:103E800020001FB0F0BCBB46B246A946A046F0BD1C
:103E9000099B40CB0A96002E03DB50780993561CF1
:103EA0008DE72838014370420A9009935078561CD8
:103EB00085E7782800D1DFE1582800D14CE26F284F
:103EC00000D14FE3622801D100F030FC10230A003A
:103ED0009A430B92692801D000F0A9FC0A230C93A5
:103EE0004B0500D5D0E10B9A802311009B001940AF
:103EF0008B461A4200D0A1E2802311005B001940DA
:103F00008A461A4200D0B6E313005B0600D5EDE204
:103F1000130009991B0601D400F076FC08C91BB2F6
:103F2000D8171A18424092B209919346DA0F1292AA
:103F3000002B09D1802310220B99DB000B40914309
:103F40000B91002B00D0E4E20B9A6123920600D57E
:103F500041230EA91F228C46DBB262440A3B5F4616
:103F60001395A34655460C9CB2460D9316000AE0E5
:103F70003033DBB201357355A74200D2EDE2202D7C
:103F800000D1EAE207002100380000F0F5FCCBB2D6
:103F90000929EDD90D9A94466344DBB2EAE7802300
:103FA0009B007078194301362FE77078682800D19C
:103FB000CDE180230136194327E770786C2800D1C2
:103FC000BFE180235B00194301361EE7462800D17C
:103FD0009BE10722099B0491073393430A9A190036
:103FE0000392424602920CC90898009201930991EB
:103FF0002A004B462100FFF7CFFC01360500BCE646
:104000002A006F1C4B46089D21002520A847013639
:104010003D00B2E68B0700D4ADE1099B2A009A4629
:104020006B1C9846534601CB21009A46089F4B468D
:10403000C0B2B8470A9B9C466544012B00D886E273
:10404000089B4746B04626004C4699463A00230056
:10405000013731002020C847AF42F7D1A14653466F
:10406000340046460993013687E6C046313D0010CC
:1040700084090020AC610010F06100103C62001067
:10408000099B04CB9B4643460992002B00D1C6E016
:1040900013789C46002B00D1BDE34346013B099AAF
:1040A0000133D0180A9F130001E0834203D05A78ED
:1040B0000133002AF9D1099A0A979B1A0B9380239E
:1040C0000A00DB001A400C92194204D00B9B4345B6
:1040D00001D943460B9302231A000A400D920B426A
:1040E00000D187E16046002800D168E10C9B002BDD
:1040F00000D10DE1A844C246099B57465B1B984678
:10410000089BB2462A0026004C46994609E0230047
:104110003100551CC8474346585D002800D126E1B0
:104120002A009742F3D1A1463D00340056460D9B2C
:10413000002B00D043E15B46013609931DE6099B45
:104140001A0008CA9246002B48D0212211438B4600
:104150000EA884461F216144099500220F27A4461A
:104160000D0002E0202A0CD00B003C001C40200077
:104170003730092C00D807380132A85419090F2B01
:10418000F0D86446099D32E0DC4B20780893002388
:104190009A46002800D0E4E5002465E64346060080
:1041A0000A9F9800C0180132400080191678030059
:1041B00030003038303B0928F3D9300098461600DB
:1041C0000A9700E6099B023604CB9046D24340464C
:1041D000D2171040804609933078F4E51022080089
:1041E000904311321043834600224905B0D55B4607
:1041F0000693082305934346049310230393002357
:10420000029316AB019200932A004B4621000898B6
:10421000FFF7AEF85346050001360993ADE5137874
:104220009C46002B00D1F7E202235B4237E72023B4
:1042300002009A43472A04D180231B011943022319
:104240009843452801D1202319430722099B049153
:10425000073393430A9A19000392424602920CC90B
:1042600008980092019309912A004B462100FFF71C
:104270006DF90136050080E510230C930C230A002C
:104280009A430B924B0503D501230B9A9A430B9249
:10429000692800D127E6642800D124E60B9A802300
:1042A00011009B0019408B461A4200D066E1802322
:1042B00011005B0019408A461A4200D039E213000F
:1042C0005B0600D53CE113001B0600D4A6E2099B67
:1042D00004CB1204120C934609935B46002B00D0CA
:1042E0009AE10B9A1033110099430B91520500D4B7
:1042F00092E100239A460B9B06930A9B0593434643
:1043000004930C9B039300230CE12023194360E6E4
:10431000099B0A9A5B1B98464B4691461F00B24682
:104320002600089C2A003B003100A0474346013587
:10433000585D0028F6D14A463400B94656460A92DE
:10434000F5E6C0239B00B078194302365DE5C02333
:10435000B0781943023658E50C230A009A43143307
:104360001A43103B0B920C934B058DD496E7A14654
:1043700034005646DBE60A9A012A00D853E26B1E47
:104380009F18089BB04626004C4699462A002300F9
:10439000013531002020C847BD42F7D1A146340085
:1043A0004646099B3A0001CB210098467D1C4B46AE
:1043B000089FC0B2B847434601360993DDE40B9B22
:1043C0000A9AA8469A4200D8B5E694466544ED1A82
:1043D000089B4746B04626004C4699463A002300C3
:1043E000013731002020C847AF42F7D1A146340041
:1043F0004646A0E60B9A0A99531C914200D814E253
:104400004B199B1A1F00089BB24626004C46994642
:104410002A002300013531002020C847BD42F7D1D2
:104420000A9BA14601330B93099B34001B78564627
:104430009C466046002800D058E67CE60722099B8F
:1044400007339343013294469C4462465F68099265
:104450001A68FB1710931193109811990300534099
:104460000E930B007B400F9394460E9A0F9B121AEB
:104470008B410E920F93FB0F6246129300233A4337
:104480009B463DD00B9A6123920600D54123002222
:10449000DBB20EA90A3B8C4692460D9343461F326F
:1044A00062441395159655460E9E0F9FA246904660
:1044B0000C9C14930CE03032D2B2434601355A556D
:1044C000BB4500D18AE1202D00D18AE106000F0012
:1044D000220000233000390000F08CFAD2B2092A01
:1044E000E9D90D9B9C466244D2B2E6E7FF230999C5
:1044F00004C913401A00099117E5C046D1320010D3
:104500000B9A1033110099430B915205BAD5002331
:104510009A460B9B06930A9B0593434604930C9B78
:104520000393129B02935346019316AB2A00009308
:1045300021004B460898FEF71BFF013605001CE4DE
:10454000FF22099B02CB11408B460993C5E65346D7
:10455000454609930136FFF710FC56465C46AA46CD
:10456000139DD6E708230C930B910B99642800D078
:1045700084E60B9B5B0500D586E6B4E40722099B25
:1045800007339343013294469C44624609921A6869
:104590005B6810009B4613005A46134307D10B9AE1
:1045A0001033110099430B91520500D5A1E60B9AE7
:1045B0006123920600D541230022DBB20EA90A3BFB
:1045C0008C4692460D9343461F3262445F461295D5
:1045D000A34655460400B24690460C9E13930DE048
:1045E0003032D2B2434601355A550023BB4200D186
:1045F00000E1202D00D100E104000F003200002373
:104600002000390000F0F6F9D2B2092AE8D90D9B52
:104610009C466244D2B2E5E70B9A6123920600D52C
:104620004123DBB20EA90A3B1F228C460D932300C7
:1046300062445C461295170055469B46B2460C9E56
:1046400008E03033DBB201357B55B4420ED3202D68
:104650000CD004003100200000F08EF9CBB2092903
:10466000EFD90D9A94466344DBB2ECE756465C46BC
:10467000AA46129D3FE6099B1A0008CAD917139251
:104680005A184A409246DA0F1292002B08D1802322
:1046900010220B99DB000B4091430B91002B2BD187
:1046A0000B9A6123920600D541230EAA1F27944638
:1046B000DBB20A3B0D9567445D460993A346544619
:1046C000B2460C9E08E03033DBB201357B55B44274
:1046D0000ED3202D0CD004003100200000F04CF946
:1046E000CBB20929EFD9099A94466344DBB2ECE7CF
:1046F00056465C46AB460D9D0B9B2A0006930A9BD3
:1047000021000593434604930C9B08980393129B46
:10471000013602935B46019316AB00934B46FEF7BE
:1047200027FE139B05000993FFF727FB02230C9339
:104730001AE7099B04CB92461293002A08D18023E2
:1047400010220B99DB000B4091430B91002B2BD1D6
:104750000B9A6123920600D541230EAA1F27944687
:10476000DBB20A3B0D9567445D460993A346544668
:10477000B2460C9E08E03033DBB201357B55B442C3
:104780000ED3202D0CD004003100200000F0F4F8EE
:10479000CBB20929EFD9099A94466344DBB2ECE71E
:1047A00056465C46AB460D9D0B9B2A0006930A9B22
:1047B00021000593434604930C9B08980393002320
:1047C00002935B46019316AB00934B46FEF7D0FD78
:1047D000129B050009930136FFF7CFFAB44200D8C7
:1047E00071E6149B54460E960F97AA469846159E5E
:1047F000139D8EE6A64200D8FBE6139B56469846CC
:10480000AA465C46129D76E508C9D8171A18424098
:104810000991FFF78AFB00230B9350E4099B04CB1B
:104820009346099359E52F00BBE50B9301E6063B40
:104830000C939AE60EB4012210B585B007AC08CCF3
:1048400001000094524204480394FFF771FA05B046
:1048500010BC08BC03B01847C93200100CB410B526
:1048600084B006AC08CC0A0000940100044803940C
:10487000FFF75EFA04B010BC08BC02B01847C0468F
:10488000C932001010B5094A0300146884B0002C26
:1048900008D0012200910648524203A9A0470120F6
:1048A00004B010BD01F040F90020F9E784090020B0
:1048B0003D35001001480421014B184760040020D9
:1048C000E5480010142310B50100188804331B8834
:1048D000984710BD162310B50100188802331B88B5
:1048E000984710BDF8B54746CE4680B50F1E19D083
:1048F00014239946043304000025012698464B46AC
:104900001888434621681B88984701C4431E984174
:10491000013540420640AF42F1D13000C0BCB9463B
:10492000B046F8BD0126F8E7124A936F9B0815D2EE
:104930009066D166002905D0FFE7FFE7FFE7516FDA
:10494000106F704704B580210906C2175140002836
:1049500000D0C84301F0CCFB002104BDF0B5146EBB
:10496000556E576F166FFFF7E3FF1466556657676E
:104970001667F0BD000000D0114A936F9B0813D258
:1049800010665166002905D0FFE7FFE7FFE7516F8A
:10499000106F704704B5002801D00020C04301F01B
:1049A000A7FB002104BDC046F0B5146E556E576FCD
:1049B000166FFFF7E5FF1466556657671667F0BD7B
:1049C000000000D094464A4A926F9208624601D293
:1049D00028E0C046F0B5464E346E756E776F366F80
:1049E00000F020F89446424A1466556657671667E9
:1049F0006246F0BD94463E4A926F9208624601D2EA
:104A000054E0C046F0B53A4E346E756E776F366F2F
:104A100000F04CF89446364A146655665767166798
:104A20006246F0BD002B24DB11D000293EDA00B530
:104A3000C943404200D1013100F038F8C943404237
:104A400000D10131DB43524200D1013300BD002AC5
:104A5000EBD1002801D1002905D00020C90FC907DA
:104A600001D1C043410800B501F032FB0022002310
:104A700000BD00B500290ADBDB43524200D10133FF
:104A800000F014F8C943404200D1013100BDC943D0
:104A9000404200D10131DB43524200D1013300F0EA
:104AA00005F8DB43524200D1013300BD002923D178
:104AB000002B18D1002A0CD0BC460D4F38667A6600
:104AC00000210023FFE7FFE7FFE77A6F386F6746B3
:104AD0007047002801D00748010000B501F0F8FA3E
:104AE0000022002300BD02000B00002000217047BF
:104AF000000000D0FFFFFFFF002B00D0BFE0130C31
:104B000028D1002AE7D080B4114F39667A66FFE7D2
:104B1000FFE730B4040C7B6F396F1B0423433B6603
:104B20007A66FFE7FFE7FFE7C04684B27B6F3D6F21
:104B30001B0423433B667A66FFE7FFE7C04600237A
:104B40002C042D0C7A6F386F00196941B0BC704786
:104B5000000000D0F0B594460025140E01D11202D9
:104B60000835140F01D112010435940F01D19200C0
:104B70000235D40F01D152000135D40B0134254F39
:104B80007C66254C3C660E0C93B2FFE7FFE7FFE71F
:104B90003C6F6643360C7703BE467343DF0B5B0402
:104BA000C01AB941130C7343DB18C91ACE08664307
:104BB000360CB64493B273431F0F1B01C01AB941A0
:104BC000130C73431F0B1B05C01AB941860D8F02CE
:104BD0003E436643360C092D24DB520A7243801A89
:104BE0007703460A6643360C16235B1BDE40DF4024
:104BF000BF1964466643821B7046043506330100C4
:104C0000D940A840C01900D30131A24206D20023E6
:104C1000F0BD0000000000D0FFFFFFFF121B0130BD
:104C2000F3D3F1E709277F1BFE406446A2B272432B
:104C3000801A00D20139220C7243130C1204821A1A
:104C400099410B007046043513370100F940A84024
:104C5000801900D30131002B02D1A2420AD2F0BD4B
:104C6000013000D30131121BFAD2013BF8D1A2422C
:104C700000D2F0BD013000D30131121BF7E7F0B5CF
:104C80001C0C00D080E00CB400251C0A04D11B02CF
:104C9000160E3343120208351C0B04D11B01160FEC
:104CA0003343120104359C0B04D19B00960F334310
:104CB00092000235DC0B02D192185B4101351C00D9
:104CC000971864410134464F7C66464C3C660E0C96
:104CD000FFE7FFE7FFE7C0463C6F6643360C77030C
:104CE000BE4697B27743C01B00D20139C01B00D229
:104CF00001399FB27743C91BC91B170C77437E0448
:104D0000FF0B801BB941CE086643360C0C2D33DBFC
:104D1000B644120B1F053A431B0B97B27743C01BD7
:104D200000D201399FB27743C91B170C77433E0469
:104D30003F0C801BB941860D8F023E4366432927F5
:104D40007F1BFE400C3D7746AF40BF1930BCA2B27E
:104D5000ABB272437343801A9941220C7243130C15
:104D60001204801A994102000B000137001BA9416F
:104D7000F9D2781E0021F0BD0C277F1BFE4077463C
:104D80007F0BAF40FF19E0E700245D1C07D0144FF4
:104D90007D663966FFE7FFE7FFE7FFE73C6F95B207
:104DA0009EB265436643401BB141150C1E0C654322
:104DB000664336042F0C3E432D04401BB1419942FB
:104DC00004D202000B0020000021F0BD01D190426E
:104DD000F7D3801A994101349942F2D3F6E70000E3
:104DE000000000D0FFFFFFFF48404140484018B49A
:104DF0001B4B5B68FC46019308BD04DF9F5000100D
:104E000018B4174B1B68FC46019308BD00DFA9507E
:104E100000109446134A926F920809D2624618B461
:104E20000F4BDB68FC46019308BD0CDF615300109B
:104E30000C4AF0B5146E556E576F166F6246FFF749
:104E4000EEFF084A1466556657671667F0BD18B43A
:104E5000034B9B68FC46019308BD08DF0552001018
:104E6000C0050020000000D0FFB550404240504037
:104E700059404B40594000E0FFB5154F4C00640DC0
:104E800003D0BC4204D10C0314D80020090D09053D
:104E90005C00640D03D0BC4204D11C030AD800227C
:104EA0001B0D1B0501264B4009D44B4003D58B42FB
:104EB00000D18242FFBD9942FCD19042FFBD0B431D
:104EC000DB1803431343F5D0C9434918FFBD000065
:104ED000FF07000000B5FFF7CFFF804100BDC046CF
:104EE00000B5FFF7C9FF01D9002000BD012000BDBA
:104EF00000B5FFF7B9FF01D9002000BD012000BDBA
:104F000000B5FFF7B1FF804100BD012040054A0018
:104F1000121804D85A00121801D800207047012036
:104F200070470020704700000021002805D170471D
:104F3000C1174840401AFAD0C90713B5064B1B6881
:104F400098470CBC441CA2401005120B0349091BD6
:104F500009051943114310BDB80900201F040000C2
:104F600010B54C00620D8023D218DB00D21A5B050D
:104F70007E2A10DD9E3A13DACC170903490819433B
:104F80005242D140640001341532202A05DAD04063
:104F90000843604310BD002010BD0846604310BDAB
:104FA000C80FC018013810BD18B4044B5B6AFC462A
:104FB000019308BD24DF115500100000C00500203A
:104FC00018B4044BDB6FFC46019308BD7CDF9155A0
:104FD00000100000C0050020132370B51D78012DBE
:104FE00015D010DD1C48FFF775FC1C4C0100802219
:104FF000200000F067FC022D06D01948FFF762FC84
:10500000184B186070BD154C174BA364F5E7164B91
:10501000124C23606360A360E36023616361A3615A
:10502000E36123626362A362E36223636363A36356
:10503000E36323646364A364E36423656365A36536
:10504000E36523666366A366E36623676367A36716
:10505000E367A364D1E7C04653440000C0050020C5
:105060004C330000B80900206D50001007B56046B1
:1050700001880A0A0230DF2AFAD1C9B2820804D3B1
:10508000028840880004104300E00068014A505044
:10509000039007BDC00500200FB403BC0CBCF0B5E5
:1050A0000124E407634000E0F0B50C0DCF0F661E4D
:1050B0003605891B640503D3C943404200D301313F
:1050C000640D03D0661CF60A07D0E41B00207F00A5
:1050D000791C89078912803C24031D0DDF0F6E1E89
:1050E00036059B1B6D0503D3DB43524200D30133CE
:1050F0006D0D03D06E1CF60A07D0ED1B00227F0059
:105100007B1C9B079B12803D2D032F1B661B58D4D5
:10511000A446202E46DA20371400BC401D00BD40B6
:10512000F24033412A4380185941CB0F05D0C9437F
:10513000C043002264425041514162464D0D28D186
:105140000D0D07D100281FD0241940414941013AD3
:105150000D0DF9D0640006D3013000D30131002CCD
:1051600001D140084000013A0BD4941CE40A04D158
:1051700012051144DB071944F0BDD907204B194330
:1051800000E0D9070020F0BD0029DDD1002CDBD1E3
:10519000F0BD0132C6074008CD0728434908002E5C
:1051A000E1D0D9E73C2E29DA203E40371400BC403C
:1051B00000D00124F24014431A00BB401C43D31713
:1051C000ACE7AC46202F08DA20360400B4400D00CE
:1051D000B540F84039412843A5E73C2F0CDA203F81
:1051E00040360400B44000D00124F84004430800D5
:1051F000B1400C43C117EAE710001900002494E7FE
:105200000000F07FF0B50C0D661E3605891BE60A1E
:105210006405640D02D0651CED0A04D00020012154
:105220000905803C2403A4461C0D671E3F05DB1BBB
:10523000E70A6405640D02D0651CED0A04D0002263
:1052400001231B05803C24037740644497B484B257
:1052500096B27443070C7E43150C6F4380B26843CB
:10526000361802D3012000043F183004350C001911
:105270007D41844688B29AB250430C0C62431F0CA5
:105280007C438EB27E43921902D301263604A419C0
:105290001604170C3618674101BC81B29AB251430B
:1052A000040C62431B0C5C4380B25843121802D3B7
:1052B0000120000424181004130C401863412D1819
:1052C0005E410020474106BC88B293B258430C0CA3
:1052D0006343120C544389B251435B1802D301213A
:1052E0000904641819041A0C091862416D18564112
:1052F0000020474118BCF902720D1143F0026A0DFB
:105300001043ED020A0D03D16D1940414941013BA3
:10531000124E9B1B7600B3420ED26D0007D30130B4
:10532000002671416646354301D1400840001B0507
:10533000C918E4072144F0BD0BDA013306D101306E
:1053400004D101314F0D01D04908F2E7E1070020F7
:10535000F0BD013631050020EBE70000FF0300003F
:10536000F0B51C0D671E3F05DB1BE70A6405640DE5
:1053700002D0661CF60A04D0002201231B05803CE3
:105380002403D0252D060026F6432E661E096E66E0
:10539000CE0FF619B44649004F0D02D07E1CF60A16
:1053A00003D000200021403F3F033E1BB600B44421
:1053B000013F7F05C91B49082E6F013676089C0204
:1053C000950D25437543ED137543AD1301356D10F0
:1053D000F603761B0CB4CC02450D2C43A2B2B3B23B
:1053E0005A43270C7B43350C6F43A4B26C431B1903
:1053F00002D3012424043F191C041D0CA4187D4170
:1054000024196D41009A91B2ACB26143170C7C43F0
:105410002B0C5F4392B25A43A41802D30122120408
:10542000BF182204230C52187B41019C6C431B19AA
:10543000520ED9010A434401A01A81B2B2B25143BB
:1054400003145A43360C734387B27743D617D219E5
:1054500000277E4136049B191704160C7F185E4105
:105460007316ED18F301002680337541A90F06D19C
:105470006400690AE8055B0A184309D22FE0042298
:10548000944480337541A90AA8059B0A184326D382
:10549000404149412404009A019B0D005543641B7F
:1054A0004343E41A95B286B27543170C7E43030C4E
:1054B0005F4392B25A43B61802D301221204BF18B6
:1054C0003204330C52197B4152429C41002C02D4CD
:1054D0000022013051414008CA071043490802B078
:1054E0006246D7079210084BD218084B9A4203D253
:1054F00012058918C919F0BD0020002A01DC390005
:10550000F0BD01331905F5E7FD030000FE070000BB
:10551000002200B5203200F004F8080000BD0000B1
:1055200000220B150AD410B5944600F05FF814144D
:10553000013400DA0021CB17144C20470020002151
:1055400070476244343A0CD40C2A07DA04009140C4
:10555000904052422032D440214310BDD843D94319
:1055600010BD203207D40C469440524220321141E3
:10557000D040204310BD0800C917203203D4524246
:105580002032104110BD1800190010BD4355001005
:105590004A00520D144BD21A13DDFF2A1EDAD2052F
:1055A000CB0FDB071A43C300400F0903490A084326
:1055B00010435B0001D301D0013070474308FBD298
:1055C000704702D0C80FC00770470A031213013298
:1055D000F8D1420F072AF5D1012200E0FF22C80FBF
:1055E00000028018C0057047800300000A0DCC0F30
:1055F000531E1B05C91A520503D3C943404200D3A9
:105600000131520D03D0531CDB0A07D0121B0020BE
:105610006400611C89078912803A1203014BD21A77
:1056200070470000FF03000051434343C9188C46F4
:10563000110C83B24B4310B4040C614392B280B29C
:10564000504362431C041B0C001910BC5941130445
:10565000120CC0185141614470470000484041405D
:1056600048400E4B5B6818470C4B1B6818470C4AA8
:10567000936F9B0802D2094BDB681847F0B5146E94
:10568000556E576F166FFFF7F6FF054A146655669D
:1056900057671667F0BD014B9B681847C00600208E
:1056A000000000D007B548404140484001E0C046F6
:1056B00007B54200120E03D0FF2A03D1420218D8C8
:1056C000C00DC0054A00120E03D0FF2A03D14A02C2
:1056D0000FD8C90DC9050122414005D4414001D56B
:1056E000814207BD884207BD0143491801D0C0432C
:1056F000001807BD00B5FFF7D5FF804100BD491A6E
:10570000002807D108467047C10FC90700D540429D
:10571000002817D0F44603B40B4B1B68984706BC0F
:1057200081409E384042803107D20B0607D04900A5
:10573000490AC0051043084360470130F8E7490AA9
:105740008902F5E770470000B809002041000A0E01
:1057500080231B067E2A0BDD9E3A0BDAC11740021E
:10576000400818435242D040490001314843704735
:1057700000207047C00FC01801387047C0420DD3D9
:1057800000B540004008002100F012F8002801D4C4
:10579000404200BD8020000600BD0000034BDB69D5
:1057A000FC4618471CDF615800100000C0060020AE
:1057B000014B5B6A18470000C0060020034BDB6FFB
:1057C000FC4618477CDF795800100000C006002016
:1057D000132310B512481C78FFF77CF80100012C48
:1057E0000AD003DD80220F4800F06CF80E48FFF766
:1057F00069F80E4B186010BD0A4C5422200000F0CE
:1058000061F80B4B6365A365E36523666366A36676
:10581000E36623676367A367E3672362E361E5E702
:1058200053460000C00600204C330000B809002099
:105830003558001007B5604601880A0A0230DF2A91
:10584000FAD1C9B2820804D3028840880004104308
:1058500000E00068014A5050039007BDC0060020D8
:105860000021C2158032803201D0024A1047002048
:1058700070470000CD2A0000C30FDB0741000A0E6D
:1058800007D0FF2A08D00909054A8918194340079B
:1058900070471900002070470249C918FAE7000054
:1058A000000000380000F07F01480421014B184738
:1058B00070040020E5480010014B1B6818470000E9
:1058C00070040020014B5B68184700007004002042
:1058D000030010B5080011001B68984710BDC046B2
:1058E000F0B546464F46D646C0B5437D80460E00CD
:1058F0001700002B46D0002A3FDD4B1E9946244B53
:105900000125002400209A460DE04B461B5D0D3B0F
:105910005A425341325DDBB20A2A0BD02B000134CC
:1059200001359F421ADD002CEFD14346325D1B7DCD
:105930000A2AF3D1002BF1D1A04204DA4346211AFE
:105940001B6830189847434650461B680221984709
:10595000013428002B0001359F42E4DC874204DD3E
:105960004346391A1B6830189847F619013E3378B8
:105970000D3B5A42534142461375E0BCBA46B1460C
:10598000A846F0BD0368110030009847F5E7C0460F
:1059900048640010F0B5DE4657464E464546E0B531
:1059A00085B017001C0006000D00FCF755FF002312
:1059B000304A12184B41002B58DB2F4908008A4609
:1059C00000F0A6FB01906B1C03D1300000F040FBFF
:1059D0000500002C25D1294B9846294B1C68002C2A
:1059E00015D0002F20D1274F02E02469002C0ED0C3
:1059F0002368002BF9D03B68002B01D0A342F4D1DF
:105A000020002A003100C0472469002CF0D1019BFE
:105A1000002B27D105B0F0BCBB46B246A946A04634
:105A2000F0BD194B9846D8E7164B994602ABDF1DDF
:105A30000A239B4602E02469002CE8D02368002B4F
:105A4000F9D04B461B68002B01D0A342F3D12A00AA
:105A500031002000C0475B460122390020003B7026
:105A6000C047E8E7504600F02BFBD3E70122074B85
:105A70005242A2E740420F00A0040020E15800106B
:105A8000740900207C090020D1580010FFFFFF7F1F
:105A9000F0B5CE46474680B583B06B460600DD1DA7
:105AA0002870FCF7D9FE00231A4A12184B41002B2C
:105AB0002BDB19490800884600F02AFB174B81466A
:105AC0001C68002C14D0164F02E02469002C0FD063
:105AD0002368002BF9D03B68002B01D0A342F4D1FE
